{
  "_format": "hh-sol-artifact-1",
  "contractName": "UFARMBeneficiaryBook",
  "sourceName": "contracts/UFARMBeneficiaryBook.sol",
  "abi": [
    {
      "inputs": [],
      "stateMutability": "nonpayable",
      "type": "constructor"
    },
    {
      "anonymous": false,
      "inputs": [
        {
          "indexed": false,
          "internalType": "address",
          "name": "account",
          "type": "address"
        },
        {
          "indexed": false,
          "internalType": "address",
          "name": "vest",
          "type": "address"
        },
        {
          "indexed": false,
          "internalType": "uint256",
          "name": "claimTokens",
          "type": "uint256"
        },
        {
          "indexed": false,
          "internalType": "uint256",
          "name": "time",
          "type": "uint256"
        }
      ],
      "name": "Activated",
      "type": "event"
    },
    {
      "anonymous": false,
      "inputs": [
        {
          "indexed": true,
          "internalType": "address",
          "name": "previousOwner",
          "type": "address"
        },
        {
          "indexed": true,
          "internalType": "address",
          "name": "newOwner",
          "type": "address"
        }
      ],
      "name": "OwnershipTransferred",
      "type": "event"
    },
    {
      "anonymous": false,
      "inputs": [
        {
          "indexed": false,
          "internalType": "address",
          "name": "account",
          "type": "address"
        }
      ],
      "name": "Paused",
      "type": "event"
    },
    {
      "anonymous": false,
      "inputs": [
        {
          "indexed": false,
          "internalType": "address",
          "name": "account",
          "type": "address"
        },
        {
          "indexed": false,
          "internalType": "address",
          "name": "vest",
          "type": "address"
        },
        {
          "indexed": false,
          "internalType": "uint256",
          "name": "time",
          "type": "uint256"
        }
      ],
      "name": "UnActivated",
      "type": "event"
    },
    {
      "anonymous": false,
      "inputs": [
        {
          "indexed": false,
          "internalType": "address",
          "name": "account",
          "type": "address"
        }
      ],
      "name": "Unpaused",
      "type": "event"
    },
    {
      "inputs": [
        {
          "internalType": "address",
          "name": "",
          "type": "address"
        },
        {
          "internalType": "uint256",
          "name": "",
          "type": "uint256"
        }
      ],
      "name": "beneficiaries",
      "outputs": [
        {
          "internalType": "address",
          "name": "beneficiaryAddress",
          "type": "address"
        },
        {
          "internalType": "address",
          "name": "vestAddress",
          "type": "address"
        },
        {
          "internalType": "uint256",
          "name": "claimTokens",
          "type": "uint256"
        }
      ],
      "stateMutability": "view",
      "type": "function"
    },
    {
      "inputs": [
        {
          "internalType": "address",
          "name": "account",
          "type": "address"
        }
      ],
      "name": "beneficiaryActivationCount",
      "outputs": [
        {
          "internalType": "uint256",
          "name": "",
          "type": "uint256"
        }
      ],
      "stateMutability": "view",
      "type": "function"
    },
    {
      "inputs": [
        {
          "internalType": "address",
          "name": "account",
          "type": "address"
        },
        {
          "internalType": "uint256",
          "name": "index",
          "type": "uint256"
        }
      ],
      "name": "isBeneficiary",
      "outputs": [
        {
          "internalType": "bool",
          "name": "",
          "type": "bool"
        },
        {
          "internalType": "address",
          "name": "",
          "type": "address"
        },
        {
          "internalType": "uint256",
          "name": "",
          "type": "uint256"
        }
      ],
      "stateMutability": "view",
      "type": "function"
    },
    {
      "inputs": [
        {
          "internalType": "address[]",
          "name": "accounts",
          "type": "address[]"
        },
        {
          "internalType": "address[]",
          "name": "vest",
          "type": "address[]"
        },
        {
          "internalType": "uint256[]",
          "name": "tokens",
          "type": "uint256[]"
        }
      ],
      "name": "multiActivation",
      "outputs": [],
      "stateMutability": "nonpayable",
      "type": "function"
    },
    {
      "inputs": [],
      "name": "owner",
      "outputs": [
        {
          "internalType": "address",
          "name": "",
          "type": "address"
        }
      ],
      "stateMutability": "view",
      "type": "function"
    },
    {
      "inputs": [],
      "name": "paused",
      "outputs": [
        {
          "internalType": "bool",
          "name": "",
          "type": "bool"
        }
      ],
      "stateMutability": "view",
      "type": "function"
    },
    {
      "inputs": [],
      "name": "renounceOwnership",
      "outputs": [],
      "stateMutability": "nonpayable",
      "type": "function"
    },
    {
      "inputs": [
        {
          "internalType": "address",
          "name": "account",
          "type": "address"
        },
        {
          "internalType": "address",
          "name": "vest",
          "type": "address"
        },
        {
          "internalType": "uint256",
          "name": "tokens",
          "type": "uint256"
        }
      ],
      "name": "singleActivation",
      "outputs": [],
      "stateMutability": "nonpayable",
      "type": "function"
    },
    {
      "inputs": [],
      "name": "superAdmin",
      "outputs": [
        {
          "internalType": "address",
          "name": "",
          "type": "address"
        }
      ],
      "stateMutability": "view",
      "type": "function"
    },
    {
      "inputs": [
        {
          "internalType": "address",
          "name": "newOwner",
          "type": "address"
        }
      ],
      "name": "transferOwnership",
      "outputs": [],
      "stateMutability": "nonpayable",
      "type": "function"
    },
    {
      "inputs": [
        {
          "internalType": "address",
          "name": "account",
          "type": "address"
        },
        {
          "internalType": "uint8",
          "name": "index",
          "type": "uint8"
        }
      ],
      "name": "unActivate",
      "outputs": [
        {
          "internalType": "bool",
          "name": "",
          "type": "bool"
        }
      ],
      "stateMutability": "nonpayable",
      "type": "function"
    },
    {
      "inputs": [
        {
          "internalType": "address",
          "name": "account",
          "type": "address"
        }
      ],
      "name": "unActivateForAll",
      "outputs": [
        {
          "internalType": "bool",
          "name": "",
          "type": "bool"
        }
      ],
      "stateMutability": "nonpayable",
      "type": "function"
    }
  ],
  "bytecode": "0x608060405234801561001057600080fd5b50610019610089565b600080546001600160a01b038084166101008181026001600160a81b031990941693909317808555600180546001600160a01b0319169092179091556040519290041691907f8be0079c531659141344cd1fd0a4f28419497f9722a3daafe3b4186f6b6457e0908290a35061008d565b3390565b61101f8061009c6000396000f3fe608060405234801561001057600080fd5b50600436106100b45760003560e01c8063715018a611610071578063715018a6146103885780638da5cb5b146103905780639575613114610398578063ed781237146103be578063f2fde38b146103f4578063fee9946c1461041a576100b4565b806316a59cce146100b957806322f855ee1461010d57806329575f6a146102ba578063354ea560146102de578063529849e9146103165780635c975abb1461036c575b600080fd5b6100e5600480360360408110156100cf57600080fd5b506001600160a01b038135169060200135610449565b6040805193151584526001600160a01b03909216602084015282820152519081900360600190f35b6102b86004803603606081101561012357600080fd5b81019060208101813564010000000081111561013e57600080fd5b82018360208201111561015057600080fd5b8035906020019184602083028401116401000000008311171561017257600080fd5b91908080602002602001604051908101604052809392919081815260200183836020028082843760009201919091525092959493602081019350359150506401000000008111156101c257600080fd5b8201836020820111156101d457600080fd5b803590602001918460208302840111640100000000831117156101f657600080fd5b919080806020026020016040519081016040528093929190818152602001838360200280828437600092019190915250929594936020810193503591505064010000000081111561024657600080fd5b82018360208201111561025857600080fd5b8035906020019184602083028401116401000000008311171561027a57600080fd5b9190808060200260200160405190810160405280939291908181526020018383602002808284376000920191909152509295506104b0945050505050565b005b6102c26107f8565b604080516001600160a01b039092168252519081900360200190f35b610304600480360360208110156102f457600080fd5b50356001600160a01b0316610807565b60408051918252519081900360200190f35b6103426004803603604081101561032c57600080fd5b506001600160a01b038135169060200135610822565b604080516001600160a01b0394851681529290931660208301528183015290519081900360600190f35b61037461086f565b604080519115158252519081900360200190f35b6102b8610878565b6102c2610950565b610374600480360360208110156103ae57600080fd5b50356001600160a01b0316610964565b6102b8600480360360608110156103d457600080fd5b506001600160a01b03813581169160208101359091169060400135610a31565b6102b86004803603602081101561040a57600080fd5b50356001600160a01b0316610bfa565b6103746004803603604081101561043057600080fd5b5080356001600160a01b0316906020013560ff16610d02565b6001600160a01b03821660009081526002602052604081208054829182918291908690811061047457fe5b60009182526020909120600390910201805460018201546002909201546001600160a01b03918216828a16149650911693509150509250925092565b6104b8610e9e565b60005461010090046001600160a01b0390811691161461050d576040805162461bcd60e51b81526020600482018190526024820152600080516020610fca833981519152604482015290519081900360640190fd5b81518351148061051e575080518251145b8061052a575082518151145b6105655760405162461bcd60e51b8152600401808060200182810382526025815260200180610f786025913960400191505060405180910390fd5b60005b82518160ff1610156107f25760006001600160a01b0316848260ff168151811061058e57fe5b60200260200101516001600160a01b031614156105dc5760405162461bcd60e51b8152600401808060200182810382526027815260200180610f516027913960400191505060405180910390fd5b60006001600160a01b0316838260ff16815181106105f657fe5b60200260200101516001600160a01b031614156106445760405162461bcd60e51b815260040180806020018281038252602d815260200180610f9d602d913960400191505060405180910390fd5b60026000858360ff168151811061065757fe5b60200260200101516001600160a01b03166001600160a01b031681526020019081526020016000206040518060600160405280868460ff168151811061069957fe5b60200260200101516001600160a01b03168152602001858460ff16815181106106be57fe5b60200260200101516001600160a01b03168152602001848460ff16815181106106e357fe5b602090810291909101810151909152825460018082018555600094855293829020835160039092020180546001600160a01b03199081166001600160a01b03938416178255928401519481018054909316949091169390931790556040015160029091015583517f1f49c6af21237665098f9cf0f7e4fb3be41232147d36824ec10577117875b6ca90859060ff841690811061077b57fe5b6020026020010151848360ff168151811061079257fe5b6020026020010151848460ff16815181106107a957fe5b60200260200101516107b9610ea2565b604080516001600160a01b03958616815293909416602084015282840191909152606082015290519081900360800190a1600101610568565b50505050565b6001546001600160a01b031681565b6001600160a01b031660009081526002602052604090205490565b6002602052816000526040600020818154811061083e57600080fd5b60009182526020909120600390910201805460018201546002909201546001600160a01b0391821694509116915083565b60005460ff1690565b610880610e9e565b6001546001600160a01b039081169116146108e2576040805162461bcd60e51b815260206004820181905260248201527f4f776e61626c653a2063616c6c6572206973206e6f74207468652061646d696e604482015290519081900360640190fd5b600154600080546040516001600160a01b0393841693610100909204909116917f8be0079c531659141344cd1fd0a4f28419497f9722a3daafe3b4186f6b6457e091a3600154600080546001600160a01b0390921661010002610100600160a81b0319909216919091179055565b60005461010090046001600160a01b031681565b600061096e610e9e565b60005461010090046001600160a01b039081169116146109c3576040805162461bcd60e51b81526020600482018190526024820152600080516020610fca833981519152604482015290519081900360640190fd5b6001600160a01b038216610a085760405162461bcd60e51b8152600401808060200182810382526029815260200180610f286029913960400191505060405180910390fd5b6001600160a01b0382166000908152600260205260408120610a2991610ea6565b506001919050565b610a39610e9e565b60005461010090046001600160a01b03908116911614610a8e576040805162461bcd60e51b81526020600482018190526024820152600080516020610fca833981519152604482015290519081900360640190fd5b6001600160a01b038316610ad35760405162461bcd60e51b8152600401808060200182810382526027815260200180610f516027913960400191505060405180910390fd5b6001600160a01b038216610b185760405162461bcd60e51b815260040180806020018281038252602d815260200180610f9d602d913960400191505060405180910390fd5b604080516060810182526001600160a01b0380861680835285821660208085019182528486018781526000938452600280835296842080546001818101835591865292909420865160039093020180549286166001600160a01b031993841617815592519383018054949095169390911692909217909255519201919091557f1f49c6af21237665098f9cf0f7e4fb3be41232147d36824ec10577117875b6ca848484610bc3610ea2565b604080516001600160a01b03958616815293909416602084015282840191909152606082015290519081900360800190a150505050565b610c02610e9e565b60005461010090046001600160a01b03908116911614610c57576040805162461bcd60e51b81526020600482018190526024820152600080516020610fca833981519152604482015290519081900360640190fd5b6001600160a01b038116610c9c5760405162461bcd60e51b8152600401808060200182810382526026815260200180610f026026913960400191505060405180910390fd5b600080546040516001600160a01b038085169361010090930416917f8be0079c531659141344cd1fd0a4f28419497f9722a3daafe3b4186f6b6457e091a3600080546001600160a01b0390921661010002610100600160a81b0319909216919091179055565b6000610d0c610e9e565b60005461010090046001600160a01b03908116911614610d61576040805162461bcd60e51b81526020600482018190526024820152600080516020610fca833981519152604482015290519081900360640190fd5b6001600160a01b038316610da65760405162461bcd60e51b8152600401808060200182810382526029815260200180610f286029913960400191505060405180910390fd5b6001600160a01b0383166000908152600260205260409020805460ff8416908110610dcd57fe5b60009182526020808320600390920290910180546001600160a01b03199081168255600182018054909116905560029081018390556001600160a01b038616835290526040902080547faca517df27484f736589d70cd398b065c088798b86aa950add3c51e492e4fc8f91859160ff8616908110610e4757fe5b60009182526020909120600160039092020101546001600160a01b0316610e6c610ea2565b604080516001600160a01b0394851681529290931660208301528183015290519081900360600190a150600192915050565b3390565b4290565b5080546000825560030290600052602060002090810190610ec79190610eca565b50565b5b80821115610efd5780546001600160a01b03199081168255600182018054909116905560006002820155600301610ecb565b509056fe4f776e61626c653a206e6577206f776e657220697320746865207a65726f2061646472657373554641524d42656e6566696369617279426f6f6b3a20556e41637469766174696f6e206661696c6564554641524d42656e6566696369617279426f6f6b3a2041637469766174696f6e206661696c6564554641524d42656e6566696369617279426f6f6b3a20496e76616c6964206c656e6774682e554641524d42656e6566696369617279426f6f6b3a20496e76616c69642056657374696e6720416464726573734f776e61626c653a2063616c6c6572206973206e6f7420746865206f776e6572a2646970667358221220e1df58c2d5058ea19a7321de42a9297fa818228bd70688bbf92aec834744e14864736f6c63430007060033",
  "linkReferences": {},
  "deployedLinkReferences": {}
}