{
  "_format": "hh-sol-artifact-1",
  "contractName": "UnifarmFactory",
  "sourceName": "contracts/UnifarmFactory.sol",
  "abi": [
    {
      "inputs": [
        {
          "internalType": "contract IERC20",
          "name": "vestToken_",
          "type": "address"
        }
      ],
      "stateMutability": "nonpayable",
      "type": "constructor"
    },
    {
      "anonymous": false,
      "inputs": [
        {
          "indexed": true,
          "internalType": "address",
          "name": "previousOwner",
          "type": "address"
        },
        {
          "indexed": true,
          "internalType": "address",
          "name": "newOwner",
          "type": "address"
        }
      ],
      "name": "OwnershipTransferred",
      "type": "event"
    },
    {
      "anonymous": false,
      "inputs": [
        {
          "indexed": false,
          "internalType": "address",
          "name": "account",
          "type": "address"
        }
      ],
      "name": "Paused",
      "type": "event"
    },
    {
      "anonymous": false,
      "inputs": [
        {
          "indexed": false,
          "internalType": "address",
          "name": "account",
          "type": "address"
        }
      ],
      "name": "Unpaused",
      "type": "event"
    },
    {
      "anonymous": false,
      "inputs": [
        {
          "indexed": false,
          "internalType": "address",
          "name": "vestAddress",
          "type": "address"
        },
        {
          "indexed": false,
          "internalType": "uint256",
          "name": "time",
          "type": "uint256"
        }
      ],
      "name": "Vested",
      "type": "event"
    },
    {
      "inputs": [
        {
          "internalType": "uint256",
          "name": "cliff",
          "type": "uint256"
        },
        {
          "internalType": "uint256",
          "name": "endTime",
          "type": "uint256"
        },
        {
          "internalType": "uint256",
          "name": "unlockDuration",
          "type": "uint256"
        },
        {
          "internalType": "bool",
          "name": "allowReleaseAll",
          "type": "bool"
        }
      ],
      "name": "createVest",
      "outputs": [
        {
          "internalType": "address",
          "name": "vestAddress",
          "type": "address"
        }
      ],
      "stateMutability": "nonpayable",
      "type": "function"
    },
    {
      "inputs": [],
      "name": "getVestLength",
      "outputs": [
        {
          "internalType": "uint256",
          "name": "",
          "type": "uint256"
        }
      ],
      "stateMutability": "view",
      "type": "function"
    },
    {
      "inputs": [],
      "name": "owner",
      "outputs": [
        {
          "internalType": "address",
          "name": "",
          "type": "address"
        }
      ],
      "stateMutability": "view",
      "type": "function"
    },
    {
      "inputs": [],
      "name": "paused",
      "outputs": [
        {
          "internalType": "bool",
          "name": "",
          "type": "bool"
        }
      ],
      "stateMutability": "view",
      "type": "function"
    },
    {
      "inputs": [],
      "name": "renounceOwnership",
      "outputs": [],
      "stateMutability": "nonpayable",
      "type": "function"
    },
    {
      "inputs": [],
      "name": "superAdmin",
      "outputs": [
        {
          "internalType": "address",
          "name": "",
          "type": "address"
        }
      ],
      "stateMutability": "view",
      "type": "function"
    },
    {
      "inputs": [
        {
          "internalType": "address",
          "name": "newOwner",
          "type": "address"
        }
      ],
      "name": "transferOwnership",
      "outputs": [],
      "stateMutability": "nonpayable",
      "type": "function"
    },
    {
      "inputs": [],
      "name": "vestToken",
      "outputs": [
        {
          "internalType": "contract IERC20",
          "name": "",
          "type": "address"
        }
      ],
      "stateMutability": "view",
      "type": "function"
    },
    {
      "inputs": [
        {
          "internalType": "uint256",
          "name": "",
          "type": "uint256"
        }
      ],
      "name": "vested",
      "outputs": [
        {
          "internalType": "address",
          "name": "",
          "type": "address"
        }
      ],
      "stateMutability": "view",
      "type": "function"
    }
  ],
  "bytecode": "0x608060405234801561001057600080fd5b506040516122023803806122028339818101604052602081101561003357600080fd5b505161003d6100cd565b600080546001600160a01b038084166101008181026001600160a81b031990941693909317808555600180546001600160a01b0319169092179091556040519290041691907f8be0079c531659141344cd1fd0a4f28419497f9722a3daafe3b4186f6b6457e0908290a350600380546001600160a01b0319166001600160a01b03929092169190911790556100d1565b3390565b612122806100e06000396000f3fe608060405234801561001057600080fd5b50600436106100935760003560e01c80637a30dea7116100665780637a30dea7146100fc5780638da5cb5b1461012d578063968fb8ba14610135578063b89918e014610152578063f2fde38b1461015a57610093565b806329575f6a14610098578063474cad4f146100bc5780635c975abb146100d6578063715018a6146100f2575b600080fd5b6100a0610180565b604080516001600160a01b039092168252519081900360200190f35b6100c461018f565b60408051918252519081900360200190f35b6100de610195565b604080519115158252519081900360200190f35b6100fa61019e565b005b6100a06004803603608081101561011257600080fd5b50803590602081013590604081013590606001351515610276565b6100a0610418565b6100a06004803603602081101561014b57600080fd5b503561042c565b6100a0610456565b6100fa6004803603602081101561017057600080fd5b50356001600160a01b0316610465565b6001546001600160a01b031681565b60025490565b60005460ff1690565b6101a661057f565b6001546001600160a01b03908116911614610208576040805162461bcd60e51b815260206004820181905260248201527f4f776e61626c653a2063616c6c6572206973206e6f74207468652061646d696e604482015290519081900360640190fd5b600154600080546040516001600160a01b0393841693610100909204909116917f8be0079c531659141344cd1fd0a4f28419497f9722a3daafe3b4186f6b6457e091a3600154600080546001600160a01b0390921661010002610100600160a81b0319909216919091179055565b600061028061057f565b60005461010090046001600160a01b039081169116146102e7576040805162461bcd60e51b815260206004820181905260248201527f4f776e61626c653a2063616c6c6572206973206e6f7420746865206f776e6572604482015290519081900360640190fd5b426102f061057f565b6102fa8288610583565b826103058189610583565b60035460405189916001600160a01b0316908990610322906105e4565b80886001600160a01b03168152602001878152602001868152602001858152602001848152602001836001600160a01b031681526020018215158152602001975050505050505050604051809103906000f080158015610386573d6000803e3d6000fd5b50600280546001810182556000919091527f405787fa12a823e0f2b7631cc41b3ba8828b3321ca811111fa75cd3aa3bb5ace0180546001600160a01b0319166001600160a01b0383169081179091556040805191825242602083015280519294507ed5958799b183a7b738d3ad5e711305293dd5076a37a4e3b7e6611dea6114f392918290030190a150949350505050565b60005461010090046001600160a01b031681565b6002818154811061043c57600080fd5b6000918252602090912001546001600160a01b0316905081565b6003546001600160a01b031681565b61046d61057f565b60005461010090046001600160a01b039081169116146104d4576040805162461bcd60e51b815260206004820181905260248201527f4f776e61626c653a2063616c6c6572206973206e6f7420746865206f776e6572604482015290519081900360640190fd5b6001600160a01b0381166105195760405162461bcd60e51b81526004018080602001828103825260268152602001806120c76026913960400191505060405180910390fd5b600080546040516001600160a01b038085169361010090930416917f8be0079c531659141344cd1fd0a4f28419497f9722a3daafe3b4186f6b6457e091a3600080546001600160a01b0390921661010002610100600160a81b0319909216919091179055565b3390565b6000828201838110156105dd576040805162461bcd60e51b815260206004820152601b60248201527f536166654d6174683a206164646974696f6e206f766572666c6f770000000000604482015290519081900360640190fd5b9392505050565b611ad5806105f28339019056fe608060405234801561001057600080fd5b50604051611ad5380380611ad5833981810160405260e081101561003357600080fd5b50805160208201516040808401516060850151608086015160a087015160c090970151600080546001600160a01b03808a166101008181026001600160a81b031990941693909317808555600180546001600160a01b0319169092179091559751999a989996989597949693948b949290041691907f8be0079c531659141344cd1fd0a4f28419497f9722a3daafe3b4186f6b6457e0908290a35085841161010c5760405162461bcd60e51b8152600401808060200182810382526040815260200180611a956040913960400191505060405180910390fd5b600295909555600393909355600491909155600655600780546001600160a01b0319166001600160a01b039092169190911790556008805460ff60a01b1916600160a01b92151592909202919091179055506119288061016d6000396000f3fe608060405234801561001057600080fd5b50600436106101215760003560e01c80635c975abb116100ad5780638da5cb5b116100715780638da5cb5b1461025e578063b0fd035b14610266578063b89918e014610283578063c4788bf41461028b578063f2fde38b1461029357610121565b80635c975abb1461023657806367d0661d1461023e578063715018a61461024657806378e979251461024e5780638a1fcd601461025657610121565b80632e7a067b116100f45780632e7a067b146101c757806330efb8d3146101e35780633197cbb6146101eb57806337bdc99b146101f3578063432985b31461021057610121565b806313d033c0146101265780632081a3e114610140578063294a57271461015f57806329575f6a146101a3575b600080fd5b61012e6102b9565b60408051918252519081900360200190f35b61015d6004803603602081101561015657600080fd5b50356102bf565b005b6101856004803603602081101561017557600080fd5b50356001600160a01b03166106b5565b60408051938452602084019290925282820152519081900360600190f35b6101ab6106d6565b604080516001600160a01b039092168252519081900360200190f35b6101cf6106e5565b604080519115158252519081900360200190f35b6101cf6106f5565b61012e610762565b61015d6004803603602081101561020957600080fd5b5035610768565b61015d6004803603602081101561022657600080fd5b50356001600160a01b0316610a18565b6101cf610a97565b6101cf610aa0565b61015d610b07565b61012e610bdf565b61012e610be5565b6101ab610beb565b61015d6004803603602081101561027c57600080fd5b5035610bff565b6101ab610d88565b6101ab610d97565b61015d600480360360208110156102a957600080fd5b50356001600160a01b0316610da6565b60025481565b6102c7610a97565b1561030c576040805162461bcd60e51b815260206004820152601060248201526f14185d5cd8589b194e881c185d5cd95960821b604482015290519081900360640190fd5b600854600160a01b900460ff1661036a576040805162461bcd60e51b815260206004820152601f60248201527f556e696661726d56657374696e673a20696e76616c696420617474656d707400604482015290519081900360640190fd5b600854600090819081906001600160a01b03166316a59cce61038a610eae565b866040518363ffffffff1660e01b815260040180836001600160a01b031681526020018281526020019250505060606040518083038186803b1580156103cf57600080fd5b505afa1580156103e3573d6000803e3d6000fd5b505050506040513d60608110156103f957600080fd5b508051602082015160409092015190945090925090508261044b5760405162461bcd60e51b81526004018080602001828103825260238152602001806118d06023913960400191505060405180910390fd5b6001600160a01b03821630146104925760405162461bcd60e51b81526004018080602001828103825260278152602001806117516027913960400191505060405180910390fd5b806005600061049f610eae565b6001600160a01b03166001600160a01b0316815260200190815260200160002060010154106104ff5760405162461bcd60e51b815260040180806020018281038252602b815260200180611857602b913960400191505060405180910390fd5b610532816005600061050f610eae565b6001600160a01b0316815260208101919091526040016000206001015490610eb2565b6005600061053e610eae565b6001600160a01b03166001600160a01b03168152602001908152602001600020600101819055504260056000610572610eae565b6001600160a01b03908116825260208083019390935260409182016000206002019390935560075481516370a0823160e01b81523060048201529151859491909116926370a082319260248082019391829003018186803b1580156105d657600080fd5b505afa1580156105ea573d6000803e3d6000fd5b505050506040513d602081101561060057600080fd5b50511161063e5760405162461bcd60e51b81526004018080602001828103825260248152602001806118826024913960400191505060405180910390fd5b61065c610649610eae565b6007546001600160a01b03169083610f15565b610664610eae565b6001600160a01b03167f82e416ba72d10e709b5de7ac16f5f49ff1d94f22d55bf582d353d3c313a1e8dd82610697610f6c565b6040805192835260208301919091528051918290030190a250505050565b60056020526000908152604090208054600182015460029092015490919083565b6001546001600160a01b031681565b600854600160a01b900460ff1681565b60006106ff610eae565b60005461010090046001600160a01b03908116911614610754576040805162461bcd60e51b81526020600482018190526024820152600080516020611813833981519152604482015290519081900360640190fd5b61075c610f70565b50600190565b60045481565b610770610a97565b156107b5576040805162461bcd60e51b815260206004820152601060248201526f14185d5cd8589b194e881c185d5cd95960821b604482015290519081900360640190fd5b600854600160a01b900460ff1615610814576040805162461bcd60e51b815260206004820152601f60248201527f556e696661726d56657374696e673a20696e76616c696420617474656d707400604482015290519081900360640190fd5b600854600090819081906001600160a01b03166316a59cce610834610eae565b866040518363ffffffff1660e01b815260040180836001600160a01b031681526020018281526020019250505060606040518083038186803b15801561087957600080fd5b505afa15801561088d573d6000803e3d6000fd5b505050506040513d60608110156108a357600080fd5b50805160208201516040909201519094509092509050826108f55760405162461bcd60e51b81526004018080602001828103825260238152602001806118d06023913960400191505060405180910390fd5b6001600160a01b038216301461093c5760405162461bcd60e51b81526004018080602001828103825260278152602001806117516027913960400191505060405180910390fd5b60025442101561097d5760405162461bcd60e51b81526004018080602001828103825260278152602001806117cb6027913960400191505060405180910390fd5b806005600061098a610eae565b6001600160a01b03166001600160a01b031681526020019081526020016000206001015411156109eb5760405162461bcd60e51b815260040180806020018281038252602b815260200180611857602b913960400191505060405180910390fd5b60006109fe6109f8610eae565b83611010565b9050610a11610a0b610eae565b826110e4565b5050505050565b610a20610eae565b60005461010090046001600160a01b03908116911614610a75576040805162461bcd60e51b81526020600482018190526024820152600080516020611813833981519152604482015290519081900360640190fd5b600880546001600160a01b0319166001600160a01b0392909216919091179055565b60005460ff1690565b6000610aaa610eae565b60005461010090046001600160a01b03908116911614610aff576040805162461bcd60e51b81526020600482018190526024820152600080516020611813833981519152604482015290519081900360640190fd5b61075c611280565b610b0f610eae565b6001546001600160a01b03908116911614610b71576040805162461bcd60e51b815260206004820181905260248201527f4f776e61626c653a2063616c6c6572206973206e6f74207468652061646d696e604482015290519081900360640190fd5b600154600080546040516001600160a01b0393841693610100909204909116917f8be0079c531659141344cd1fd0a4f28419497f9722a3daafe3b4186f6b6457e091a3600154600080546001600160a01b0390921661010002610100600160a81b0319909216919091179055565b60035481565b60065481565b60005461010090046001600160a01b031681565b610c07610eae565b60005461010090046001600160a01b03908116911614610c5c576040805162461bcd60e51b81526020600482018190526024820152600080516020611813833981519152604482015290519081900360640190fd5b600754604080516370a0823160e01b8152306004820152905183926001600160a01b0316916370a08231916024808301926020929190829003018186803b158015610ca657600080fd5b505afa158015610cba573d6000803e3d6000fd5b505050506040513d6020811015610cd057600080fd5b50511015610d0f5760405162461bcd60e51b81526004018080602001828103825260248152602001806118336024913960400191505060405180910390fd5b600054600754610d32916001600160a01b03918216916101009091041683610f15565b60005461010090046001600160a01b03167fdf273cb619d95419a9cd0ec88123a0538c85064229baa6363788f743fff90deb82610d6d610f6c565b6040805192835260208301919091528051918290030190a250565b6007546001600160a01b031681565b6008546001600160a01b031681565b610dae610eae565b60005461010090046001600160a01b03908116911614610e03576040805162461bcd60e51b81526020600482018190526024820152600080516020611813833981519152604482015290519081900360640190fd5b6001600160a01b038116610e485760405162461bcd60e51b815260040180806020018281038252602681526020018061172b6026913960400191505060405180910390fd5b600080546040516001600160a01b038085169361010090930416917f8be0079c531659141344cd1fd0a4f28419497f9722a3daafe3b4186f6b6457e091a3600080546001600160a01b0390921661010002610100600160a81b0319909216919091179055565b3390565b600082820183811015610f0c576040805162461bcd60e51b815260206004820152601b60248201527f536166654d6174683a206164646974696f6e206f766572666c6f770000000000604482015290519081900360640190fd5b90505b92915050565b604080516001600160a01b038416602482015260448082018490528251808303909101815260649091019091526020810180516001600160e01b031663a9059cbb60e01b179052610f67908490611303565b505050565b4290565b610f78610a97565b610fc0576040805162461bcd60e51b815260206004820152601460248201527314185d5cd8589b194e881b9bdd081c185d5cd95960621b604482015290519081900360640190fd5b6000805460ff191690557f5db9ee0a495bf2e6ff9c91a7834c1ba4fdd244a5e8aa4e537bd38aeae4b073aa610ff3610eae565b604080516001600160a01b039092168252519081900360200190a1565b6001600160a01b038216600090815260056020526040812081611032846113b4565b90506000808360020154116110495760025461104f565b82600201545b9050600061106b620151806006546113f190919063ffffffff16565b9050600060045461107a610f6c565b10156110ad576110a8826110a260065461109c87611096610f6c565b90611458565b906113f1565b906114b5565b6110cc565b6110cc826110a260065461109c8760045461145890919063ffffffff16565b90506110d884826114b5565b98975050505050505050565b8015611245576001600160a01b0382166000908152600560205260409020600101546111109082610eb2565b6001600160a01b0380841660009081526005602090815260409182902060018101949094554260029094019390935560075481516370a0823160e01b81523060048201529151859491909316926370a08231926024808201939291829003018186803b15801561117f57600080fd5b505afa158015611193573d6000803e3d6000fd5b505050506040513d60208110156111a957600080fd5b5051116111e75760405162461bcd60e51b81526004018080602001828103825260248152602001806118826024913960400191505060405180910390fd5b6007546111fe906001600160a01b03168383610f15565b6040805182815242602082015281516001600160a01b038516927f82e416ba72d10e709b5de7ac16f5f49ff1d94f22d55bf582d353d3c313a1e8dd928290030190a261127c565b60405162461bcd60e51b815260040180806020018281038252602d815260200180611778602d913960400191505060405180910390fd5b5050565b611288610a97565b156112cd576040805162461bcd60e51b815260206004820152601060248201526f14185d5cd8589b194e881c185d5cd95960821b604482015290519081900360640190fd5b6000805460ff191660011790557f62e78cea01bee320cd4e420270b5ea74000d11b0c9f74754ebdbfc544b05a258610ff3610eae565b6000611358826040518060400160405280602081526020017f5361666545524332303a206c6f772d6c6576656c2063616c6c206661696c6564815250856001600160a01b031661150e9092919063ffffffff16565b805190915015610f675780806020019051602081101561137757600080fd5b5051610f675760405162461bcd60e51b815260040180806020018281038252602a8152602001806118a6602a913960400191505060405180910390fd5b6000806113ce60025460045461145890919063ffffffff16565b6006549091506113ea906113e39083906113f1565b84906113f1565b9392505050565b6000808211611447576040805162461bcd60e51b815260206004820152601a60248201527f536166654d6174683a206469766973696f6e206279207a65726f000000000000604482015290519081900360640190fd5b81838161145057fe5b049392505050565b6000828211156114af576040805162461bcd60e51b815260206004820152601e60248201527f536166654d6174683a207375627472616374696f6e206f766572666c6f770000604482015290519081900360640190fd5b50900390565b6000826114c457506000610f0f565b828202828482816114d157fe5b0414610f0c5760405162461bcd60e51b81526004018080602001828103825260218152602001806117f26021913960400191505060405180910390fd5b606061151d8484600085611525565b949350505050565b6060824710156115665760405162461bcd60e51b81526004018080602001828103825260268152602001806117a56026913960400191505060405180910390fd5b61156f85611680565b6115c0576040805162461bcd60e51b815260206004820152601d60248201527f416464726573733a2063616c6c20746f206e6f6e2d636f6e7472616374000000604482015290519081900360640190fd5b600080866001600160a01b031685876040518082805190602001908083835b602083106115fe5780518252601f1990920191602091820191016115df565b6001836020036101000a03801982511681845116808217855250505050505090500191505060006040518083038185875af1925050503d8060008114611660576040519150601f19603f3d011682016040523d82523d6000602084013e611665565b606091505b5091509150611675828286611686565b979650505050505050565b3b151590565b606083156116955750816113ea565b8251156116a55782518084602001fd5b8160405162461bcd60e51b81526004018080602001828103825283818151815260200191508051906020019080838360005b838110156116ef5781810151838201526020016116d7565b50505050905090810190601f16801561171c5780820380516001836020036101000a031916815260200191505b509250505060405180910390fdfe4f776e61626c653a206e6577206f776e657220697320746865207a65726f2061646472657373556e696661726d56657374696e673a20496e76616c69642056657374696e672041646472657373556e696661726d56657374696e673a20596f7520646f6e74206861766520756e6c6f636b656420746f6b656e73416464726573733a20696e73756666696369656e742062616c616e636520666f722063616c6c556e696661726d56657374696e673a20636c69666620706572696f642065786563657074696f6e536166654d6174683a206d756c7469706c69636174696f6e206f766572666c6f774f776e61626c653a2063616c6c6572206973206e6f7420746865206f776e6572556e696661726d56657374696e673a20496e73756666696369656e742042616c616e6365556e696661726d56657374696e673a206e6f20636c61696d61626c6520746f6b656e732072656d61696e73556e696661726d56657374696e673a20696e73756666696369656e742062616c616e63655361666545524332303a204552433230206f7065726174696f6e20646964206e6f742073756363656564556e696661726d56657374696e673a20496e76616c69642042656e6566696369617279a264697066735822122012c08a3ec5decf91d7ccb5608c58dfd716dac6733ec4ecc4c7e973839362445664736f6c63430007060033556e696661726d56657374696e673a20656e6454696d655f2073686f756c642062652067726561746572207468616e20636c6966665f206475726174696f6e2e4f776e61626c653a206e6577206f776e657220697320746865207a65726f2061646472657373a2646970667358221220ca66e3920e8d630f083b2116fc6e46ed1ad9b8d3ca9f97adc73b75287c4b158c64736f6c63430007060033",
  "linkReferences": {},
  "deployedLinkReferences": {}
}